{
  "_format": "hh-sol-artifact-1",
  "contractName": "EventTicket",
  "sourceName": "contracts/EventTicket.sol",
  "abi": [
    {
      "inputs": [],
      "stateMutability": "nonpayable",
      "type": "constructor"
    },
    {
      "anonymous": false,
      "inputs": [
        {
          "indexed": true,
          "internalType": "address",
          "name": "owner",
          "type": "address"
        },
        {
          "indexed": true,
          "internalType": "address",
          "name": "approved",
          "type": "address"
        },
        {
          "indexed": true,
          "internalType": "uint256",
          "name": "tokenId",
          "type": "uint256"
        }
      ],
      "name": "Approval",
      "type": "event"
    },
    {
      "anonymous": false,
      "inputs": [
        {
          "indexed": true,
          "internalType": "address",
          "name": "owner",
          "type": "address"
        },
        {
          "indexed": true,
          "internalType": "address",
          "name": "operator",
          "type": "address"
        },
        {
          "indexed": false,
          "internalType": "bool",
          "name": "approved",
          "type": "bool"
        }
      ],
      "name": "ApprovalForAll",
      "type": "event"
    },
    {
      "anonymous": false,
      "inputs": [
        {
          "indexed": true,
          "internalType": "uint256",
          "name": "eventId",
          "type": "uint256"
        },
        {
          "indexed": false,
          "internalType": "string",
          "name": "name",
          "type": "string"
        },
        {
          "indexed": false,
          "internalType": "uint256",
          "name": "price",
          "type": "uint256"
        },
        {
          "indexed": false,
          "internalType": "uint256",
          "name": "totalTickets",
          "type": "uint256"
        }
      ],
      "name": "EventCreated",
      "type": "event"
    },
    {
      "anonymous": false,
      "inputs": [
        {
          "indexed": false,
          "internalType": "address",
          "name": "owner",
          "type": "address"
        },
        {
          "indexed": false,
          "internalType": "uint256",
          "name": "amount",
          "type": "uint256"
        }
      ],
      "name": "FundsWithdrawn",
      "type": "event"
    },
    {
      "anonymous": false,
      "inputs": [
        {
          "indexed": true,
          "internalType": "address",
          "name": "previousOwner",
          "type": "address"
        },
        {
          "indexed": true,
          "internalType": "address",
          "name": "newOwner",
          "type": "address"
        }
      ],
      "name": "OwnershipTransferred",
      "type": "event"
    },
    {
      "anonymous": false,
      "inputs": [
        {
          "indexed": true,
          "internalType": "uint256",
          "name": "tokenId",
          "type": "uint256"
        },
        {
          "indexed": true,
          "internalType": "uint256",
          "name": "eventId",
          "type": "uint256"
        },
        {
          "indexed": true,
          "internalType": "address",
          "name": "buyer",
          "type": "address"
        }
      ],
      "name": "TicketMinted",
      "type": "event"
    },
    {
      "anonymous": false,
      "inputs": [
        {
          "indexed": true,
          "internalType": "uint256",
          "name": "tokenId",
          "type": "uint256"
        },
        {
          "indexed": false,
          "internalType": "address",
          "name": "usedBy",
          "type": "address"
        }
      ],
      "name": "TicketUsed",
      "type": "event"
    },
    {
      "anonymous": false,
      "inputs": [
        {
          "indexed": true,
          "internalType": "address",
          "name": "from",
          "type": "address"
        },
        {
          "indexed": true,
          "internalType": "address",
          "name": "to",
          "type": "address"
        },
        {
          "indexed": true,
          "internalType": "uint256",
          "name": "tokenId",
          "type": "uint256"
        }
      ],
      "name": "Transfer",
      "type": "event"
    },
    {
      "inputs": [
        {
          "internalType": "address",
          "name": "to",
          "type": "address"
        },
        {
          "internalType": "uint256",
          "name": "tokenId",
          "type": "uint256"
        }
      ],
      "name": "approve",
      "outputs": [],
      "stateMutability": "nonpayable",
      "type": "function"
    },
    {
      "inputs": [
        {
          "internalType": "address",
          "name": "owner",
          "type": "address"
        }
      ],
      "name": "balanceOf",
      "outputs": [
        {
          "internalType": "uint256",
          "name": "",
          "type": "uint256"
        }
      ],
      "stateMutability": "view",
      "type": "function"
    },
    {
      "inputs": [
        {
          "internalType": "uint256",
          "name": "_eventId",
          "type": "uint256"
        }
      ],
      "name": "buyTicket",
      "outputs": [
        {
          "internalType": "uint256",
          "name": "",
          "type": "uint256"
        }
      ],
      "stateMutability": "payable",
      "type": "function"
    },
    {
      "inputs": [
        {
          "internalType": "string",
          "name": "_name",
          "type": "string"
        },
        {
          "internalType": "string",
          "name": "_venue",
          "type": "string"
        },
        {
          "internalType": "uint256",
          "name": "_date",
          "type": "uint256"
        },
        {
          "internalType": "uint256",
          "name": "_price",
          "type": "uint256"
        },
        {
          "internalType": "uint256",
          "name": "_totalTickets",
          "type": "uint256"
        }
      ],
      "name": "createEvent",
      "outputs": [
        {
          "internalType": "uint256",
          "name": "",
          "type": "uint256"
        }
      ],
      "stateMutability": "nonpayable",
      "type": "function"
    },
    {
      "inputs": [
        {
          "internalType": "uint256",
          "name": "_eventId",
          "type": "uint256"
        }
      ],
      "name": "deactivateEvent",
      "outputs": [],
      "stateMutability": "nonpayable",
      "type": "function"
    },
    {
      "inputs": [
        {
          "internalType": "uint256",
          "name": "",
          "type": "uint256"
        }
      ],
      "name": "events",
      "outputs": [
        {
          "internalType": "string",
          "name": "name",
          "type": "string"
        },
        {
          "internalType": "string",
          "name": "venue",
          "type": "string"
        },
        {
          "internalType": "uint256",
          "name": "date",
          "type": "uint256"
        },
        {
          "internalType": "uint256",
          "name": "price",
          "type": "uint256"
        },
        {
          "internalType": "uint256",
          "name": "totalTickets",
          "type": "uint256"
        },
        {
          "internalType": "uint256",
          "name": "ticketsSold",
          "type": "uint256"
        },
        {
          "internalType": "bool",
          "name": "isActive",
          "type": "bool"
        }
      ],
      "stateMutability": "view",
      "type": "function"
    },
    {
      "inputs": [
        {
          "internalType": "uint256",
          "name": "tokenId",
          "type": "uint256"
        }
      ],
      "name": "getApproved",
      "outputs": [
        {
          "internalType": "address",
          "name": "",
          "type": "address"
        }
      ],
      "stateMutability": "view",
      "type": "function"
    },
    {
      "inputs": [
        {
          "internalType": "uint256",
          "name": "_eventId",
          "type": "uint256"
        }
      ],
      "name": "getEvent",
      "outputs": [
        {
          "components": [
            {
              "internalType": "string",
              "name": "name",
              "type": "string"
            },
            {
              "internalType": "string",
              "name": "venue",
              "type": "string"
            },
            {
              "internalType": "uint256",
              "name": "date",
              "type": "uint256"
            },
            {
              "internalType": "uint256",
              "name": "price",
              "type": "uint256"
            },
            {
              "internalType": "uint256",
              "name": "totalTickets",
              "type": "uint256"
            },
            {
              "internalType": "uint256",
              "name": "ticketsSold",
              "type": "uint256"
            },
            {
              "internalType": "bool",
              "name": "isActive",
              "type": "bool"
            }
          ],
          "internalType": "struct EventTicket.Event",
          "name": "",
          "type": "tuple"
        }
      ],
      "stateMutability": "view",
      "type": "function"
    },
    {
      "inputs": [
        {
          "internalType": "uint256",
          "name": "_tokenId",
          "type": "uint256"
        }
      ],
      "name": "getTicket",
      "outputs": [
        {
          "components": [
            {
              "internalType": "uint256",
              "name": "eventId",
              "type": "uint256"
            },
            {
              "internalType": "bool",
              "name": "isUsed",
              "type": "bool"
            },
            {
              "internalType": "uint256",
              "name": "purchaseTime",
              "type": "uint256"
            },
            {
              "internalType": "address",
              "name": "originalBuyer",
              "type": "address"
            }
          ],
          "internalType": "struct EventTicket.Ticket",
          "name": "",
          "type": "tuple"
        }
      ],
      "stateMutability": "view",
      "type": "function"
    },
    {
      "inputs": [],
      "name": "getTotalEvents",
      "outputs": [
        {
          "internalType": "uint256",
          "name": "",
          "type": "uint256"
        }
      ],
      "stateMutability": "view",
      "type": "function"
    },
    {
      "inputs": [],
      "name": "getTotalTickets",
      "outputs": [
        {
          "internalType": "uint256",
          "name": "",
          "type": "uint256"
        }
      ],
      "stateMutability": "view",
      "type": "function"
    },
    {
      "inputs": [
        {
          "internalType": "address",
          "name": "_user",
          "type": "address"
        }
      ],
      "name": "getUserTickets",
      "outputs": [
        {
          "internalType": "uint256[]",
          "name": "",
          "type": "uint256[]"
        }
      ],
      "stateMutability": "view",
      "type": "function"
    },
    {
      "inputs": [
        {
          "internalType": "address",
          "name": "owner",
          "type": "address"
        },
        {
          "internalType": "address",
          "name": "operator",
          "type": "address"
        }
      ],
      "name": "isApprovedForAll",
      "outputs": [
        {
          "internalType": "bool",
          "name": "",
          "type": "bool"
        }
      ],
      "stateMutability": "view",
      "type": "function"
    },
    {
      "inputs": [
        {
          "internalType": "uint256",
          "name": "_tokenId",
          "type": "uint256"
        }
      ],
      "name": "isTicketValid",
      "outputs": [
        {
          "internalType": "bool",
          "name": "",
          "type": "bool"
        }
      ],
      "stateMutability": "view",
      "type": "function"
    },
    {
      "inputs": [],
      "name": "name",
      "outputs": [
        {
          "internalType": "string",
          "name": "",
          "type": "string"
        }
      ],
      "stateMutability": "view",
      "type": "function"
    },
    {
      "inputs": [],
      "name": "owner",
      "outputs": [
        {
          "internalType": "address",
          "name": "",
          "type": "address"
        }
      ],
      "stateMutability": "view",
      "type": "function"
    },
    {
      "inputs": [
        {
          "internalType": "uint256",
          "name": "tokenId",
          "type": "uint256"
        }
      ],
      "name": "ownerOf",
      "outputs": [
        {
          "internalType": "address",
          "name": "",
          "type": "address"
        }
      ],
      "stateMutability": "view",
      "type": "function"
    },
    {
      "inputs": [],
      "name": "renounceOwnership",
      "outputs": [],
      "stateMutability": "nonpayable",
      "type": "function"
    },
    {
      "inputs": [
        {
          "internalType": "address",
          "name": "from",
          "type": "address"
        },
        {
          "internalType": "address",
          "name": "to",
          "type": "address"
        },
        {
          "internalType": "uint256",
          "name": "tokenId",
          "type": "uint256"
        }
      ],
      "name": "safeTransferFrom",
      "outputs": [],
      "stateMutability": "nonpayable",
      "type": "function"
    },
    {
      "inputs": [
        {
          "internalType": "address",
          "name": "from",
          "type": "address"
        },
        {
          "internalType": "address",
          "name": "to",
          "type": "address"
        },
        {
          "internalType": "uint256",
          "name": "tokenId",
          "type": "uint256"
        },
        {
          "internalType": "bytes",
          "name": "data",
          "type": "bytes"
        }
      ],
      "name": "safeTransferFrom",
      "outputs": [],
      "stateMutability": "nonpayable",
      "type": "function"
    },
    {
      "inputs": [
        {
          "internalType": "address",
          "name": "operator",
          "type": "address"
        },
        {
          "internalType": "bool",
          "name": "approved",
          "type": "bool"
        }
      ],
      "name": "setApprovalForAll",
      "outputs": [],
      "stateMutability": "nonpayable",
      "type": "function"
    },
    {
      "inputs": [
        {
          "internalType": "bytes4",
          "name": "interfaceId",
          "type": "bytes4"
        }
      ],
      "name": "supportsInterface",
      "outputs": [
        {
          "internalType": "bool",
          "name": "",
          "type": "bool"
        }
      ],
      "stateMutability": "view",
      "type": "function"
    },
    {
      "inputs": [],
      "name": "symbol",
      "outputs": [
        {
          "internalType": "string",
          "name": "",
          "type": "string"
        }
      ],
      "stateMutability": "view",
      "type": "function"
    },
    {
      "inputs": [
        {
          "internalType": "uint256",
          "name": "",
          "type": "uint256"
        }
      ],
      "name": "tickets",
      "outputs": [
        {
          "internalType": "uint256",
          "name": "eventId",
          "type": "uint256"
        },
        {
          "internalType": "bool",
          "name": "isUsed",
          "type": "bool"
        },
        {
          "internalType": "uint256",
          "name": "purchaseTime",
          "type": "uint256"
        },
        {
          "internalType": "address",
          "name": "originalBuyer",
          "type": "address"
        }
      ],
      "stateMutability": "view",
      "type": "function"
    },
    {
      "inputs": [
        {
          "internalType": "uint256",
          "name": "tokenId",
          "type": "uint256"
        }
      ],
      "name": "tokenURI",
      "outputs": [
        {
          "internalType": "string",
          "name": "",
          "type": "string"
        }
      ],
      "stateMutability": "view",
      "type": "function"
    },
    {
      "inputs": [
        {
          "internalType": "address",
          "name": "from",
          "type": "address"
        },
        {
          "internalType": "address",
          "name": "to",
          "type": "address"
        },
        {
          "internalType": "uint256",
          "name": "tokenId",
          "type": "uint256"
        }
      ],
      "name": "transferFrom",
      "outputs": [],
      "stateMutability": "nonpayable",
      "type": "function"
    },
    {
      "inputs": [
        {
          "internalType": "address",
          "name": "newOwner",
          "type": "address"
        }
      ],
      "name": "transferOwnership",
      "outputs": [],
      "stateMutability": "nonpayable",
      "type": "function"
    },
    {
      "inputs": [
        {
          "internalType": "uint256",
          "name": "_tokenId",
          "type": "uint256"
        }
      ],
      "name": "useTicket",
      "outputs": [],
      "stateMutability": "nonpayable",
      "type": "function"
    },
    {
      "inputs": [
        {
          "internalType": "address",
          "name": "",
          "type": "address"
        },
        {
          "internalType": "uint256",
          "name": "",
          "type": "uint256"
        }
      ],
      "name": "userTickets",
      "outputs": [
        {
          "internalType": "uint256",
          "name": "",
          "type": "uint256"
        }
      ],
      "stateMutability": "view",
      "type": "function"
    },
    {
      "inputs": [],
      "name": "withdraw",
      "outputs": [],
      "stateMutability": "nonpayable",
      "type": "function"
    }
  ],
  "bytecode": "0x60806040523480156200001157600080fd5b506040518060400160405280600b81526020017f4576656e745469636b65740000000000000000000000000000000000000000008152506040518060400160405280600481526020017f45544b540000000000000000000000000000000000000000000000000000000081525081600090816200008f919062000412565b508060019081620000a1919062000412565b505050620000c4620000b8620000ca60201b60201c565b620000d260201b60201c565b620004f9565b600033905090565b6000600660009054906101000a900473ffffffffffffffffffffffffffffffffffffffff16905081600660006101000a81548173ffffffffffffffffffffffffffffffffffffffff021916908373ffffffffffffffffffffffffffffffffffffffff1602179055508173ffffffffffffffffffffffffffffffffffffffff168173ffffffffffffffffffffffffffffffffffffffff167f8be0079c531659141344cd1fd0a4f28419497f9722a3daafe3b4186f6b6457e060405160405180910390a35050565b600081519050919050565b7f4e487b7100000000000000000000000000000000000000000000000000000000600052604160045260246000fd5b7f4e487b7100000000000000000000000000000000000000000000000000000000600052602260045260246000fd5b600060028204905060018216806200021a57607f821691505b60208210810362000230576200022f620001d2565b5b50919050565b60008190508160005260206000209050919050565b60006020601f8301049050919050565b600082821b905092915050565b6000600883026200029a7fffffffffffffffffffffffffffffffffffffffffffffffffffffffffffffffff826200025b565b620002a686836200025b565b95508019841693508086168417925050509392505050565b6000819050919050565b6000819050919050565b6000620002f3620002ed620002e784620002be565b620002c8565b620002be565b9050919050565b6000819050919050565b6200030f83620002d2565b620003276200031e82620002fa565b84845462000268565b825550505050565b600090565b6200033e6200032f565b6200034b81848462000304565b505050565b5b8181101562000373576200036760008262000334565b60018101905062000351565b5050565b601f821115620003c2576200038c8162000236565b62000397846200024b565b81016020851015620003a7578190505b620003bf620003b6856200024b565b83018262000350565b50505b505050565b600082821c905092915050565b6000620003e760001984600802620003c7565b1980831691505092915050565b6000620004028383620003d4565b9150826002028217905092915050565b6200041d8262000198565b67ffffffffffffffff811115620004395762000438620001a3565b5b62000445825462000201565b6200045282828562000377565b600060209050601f8311600181146200048a576000841562000475578287015190505b620004818582620003f4565b865550620004f1565b601f1984166200049a8662000236565b60005b82811015620004c4578489015182556001820191506020850194506020810190506200049d565b86831015620004e45784890151620004e0601f891682620003d4565b8355505b6001600288020188555050505b505050505050565b61462a80620005096000396000f3fe6080604052600436106101cd5760003560e01c806367dd74ca116100f757806395d89b4111610095578063cf260baf11610064578063cf260baf146106ce578063e985e9c51461070b578063f2fde38b14610748578063fb3ae56f14610771576101cd565b806395d89b4114610614578063a22cb4651461063f578063b88d4fde14610668578063c87b56dd14610691576101cd565b8063715018a6116100d1578063715018a61461056c5780637dc379fa146105835780638da5cb5b146105c0578063957a632e146105eb576101cd565b806367dd74ca146104c25780636d1884e0146104f257806370a082311461052f576101cd565b806323b872dd1161016f57806342842e0e1161013e57806342842e0e146103f157806350b447121461041a578063616069401461045a5780636352211e14610485576101cd565b806323b872dd1461034b57806326606448146103745780633c2fc56c1461039d5780633ccfd60b146103da576101cd565b806306fdde03116101ab57806306fdde0314610277578063081812fc146102a2578063095ea7b3146102df5780630b79143014610308576101cd565b806301ffc9a7146101d25780630484a22f1461020f57806306e8337f1461024c575b600080fd5b3480156101de57600080fd5b506101f960048036038101906101f49190612bcd565b6107ae565b6040516102069190612c15565b60405180910390f35b34801561021b57600080fd5b5061023660048036038101906102319190612c8e565b610890565b6040516102439190612d83565b60405180910390f35b34801561025857600080fd5b50610261610927565b60405161026e9190612db4565b60405180910390f35b34801561028357600080fd5b5061028c610931565b6040516102999190612e5f565b60405180910390f35b3480156102ae57600080fd5b506102c960048036038101906102c49190612ead565b6109c3565b6040516102d69190612ee9565b60405180910390f35b3480156102eb57600080fd5b5061030660048036038101906103019190612f04565b610a09565b005b34801561031457600080fd5b5061032f600480360381019061032a9190612ead565b610b20565b6040516103429796959493929190612f44565b60405180910390f35b34801561035757600080fd5b50610372600480360381019061036d9190612fc1565b610c7f565b005b34801561038057600080fd5b5061039b60048036038101906103969190612ead565b610cdf565b005b3480156103a957600080fd5b506103c460048036038101906103bf9190613149565b610e23565b6040516103d19190612db4565b60405180910390f35b3480156103e657600080fd5b506103ef61101f565b005b3480156103fd57600080fd5b5061041860048036038101906104139190612fc1565b611100565b005b34801561042657600080fd5b50610441600480360381019061043c9190612ead565b611120565b60405161045194939291906131fc565b60405180910390f35b34801561046657600080fd5b5061046f61117d565b60405161047c9190612db4565b60405180910390f35b34801561049157600080fd5b506104ac60048036038101906104a79190612ead565b611187565b6040516104b99190612ee9565b60405180910390f35b6104dc60048036038101906104d79190612ead565b61120d565b6040516104e99190612db4565b60405180910390f35b3480156104fe57600080fd5b5061051960048036038101906105149190612ead565b611573565b604051610526919061333d565b60405180910390f35b34801561053b57600080fd5b5061055660048036038101906105519190612c8e565b611707565b6040516105639190612db4565b60405180910390f35b34801561057857600080fd5b506105816117be565b005b34801561058f57600080fd5b506105aa60048036038101906105a59190612ead565b6117d2565b6040516105b791906133c3565b60405180910390f35b3480156105cc57600080fd5b506105d5611884565b6040516105e29190612ee9565b60405180910390f35b3480156105f757600080fd5b50610612600480360381019061060d9190612ead565b6118ae565b005b34801561062057600080fd5b506106296118e8565b6040516106369190612e5f565b60405180910390f35b34801561064b57600080fd5b506106666004803603810190610661919061340a565b61197a565b005b34801561067457600080fd5b5061068f600480360381019061068a91906134eb565b611990565b005b34801561069d57600080fd5b506106b860048036038101906106b39190612ead565b6119f2565b6040516106c59190612e5f565b60405180910390f35b3480156106da57600080fd5b506106f560048036038101906106f09190612f04565b611a5a565b6040516107029190612db4565b60405180910390f35b34801561071757600080fd5b50610732600480360381019061072d919061356e565b611a8b565b60405161073f9190612c15565b60405180910390f35b34801561075457600080fd5b5061076f600480360381019061076a9190612c8e565b611b1f565b005b34801561077d57600080fd5b5061079860048036038101906107939190612ead565b611ba2565b6040516107a59190612c15565b60405180910390f35b60007f80ac58cd000000000000000000000000000000000000000000000000000000007bffffffffffffffffffffffffffffffffffffffffffffffffffffffff1916827bffffffffffffffffffffffffffffffffffffffffffffffffffffffff1916148061087957507f5b5e139f000000000000000000000000000000000000000000000000000000007bffffffffffffffffffffffffffffffffffffffffffffffffffffffff1916827bffffffffffffffffffffffffffffffffffffffffffffffffffffffff1916145b80610889575061088882611bd0565b5b9050919050565b6060600b60008373ffffffffffffffffffffffffffffffffffffffff1673ffffffffffffffffffffffffffffffffffffffff16815260200190815260200160002080548060200260200160405190810160405280929190818152602001828054801561091b57602002820191906000526020600020905b815481526020019060010190808311610907575b50505050509050919050565b6000600754905090565b606060008054610940906135dd565b80601f016020809104026020016040519081016040528092919081815260200182805461096c906135dd565b80156109b95780601f1061098e576101008083540402835291602001916109b9565b820191906000526020600020905b81548152906001019060200180831161099c57829003601f168201915b5050505050905090565b60006109ce82611c3a565b6004600083815260200190815260200160002060009054906101000a900473ffffffffffffffffffffffffffffffffffffffff169050919050565b6000610a1482611187565b90508073ffffffffffffffffffffffffffffffffffffffff168373ffffffffffffffffffffffffffffffffffffffff1603610a84576040517f08c379a0000000000000000000000000000000000000000000000000000000008152600401610a7b90613680565b60405180910390fd5b8073ffffffffffffffffffffffffffffffffffffffff16610aa3611c85565b73ffffffffffffffffffffffffffffffffffffffff161480610ad25750610ad181610acc611c85565b611a8b565b5b610b11576040517f08c379a0000000000000000000000000000000000000000000000000000000008152600401610b0890613712565b60405180910390fd5b610b1b8383611c8d565b505050565b6009602052806000526040600020600091509050806000018054610b43906135dd565b80601f0160208091040260200160405190810160405280929190818152602001828054610b6f906135dd565b8015610bbc5780601f10610b9157610100808354040283529160200191610bbc565b820191906000526020600020905b815481529060010190602001808311610b9f57829003601f168201915b505050505090806001018054610bd1906135dd565b80601f0160208091040260200160405190810160405280929190818152602001828054610bfd906135dd565b8015610c4a5780601f10610c1f57610100808354040283529160200191610c4a565b820191906000526020600020905b815481529060010190602001808311610c2d57829003601f168201915b5050505050908060020154908060030154908060040154908060050154908060060160009054906101000a900460ff16905087565b610c90610c8a611c85565b82611d46565b610ccf576040517f08c379a0000000000000000000000000000000000000000000000000000000008152600401610cc6906137a4565b60405180910390fd5b610cda838383611ddb565b505050565b3373ffffffffffffffffffffffffffffffffffffffff16610cff82611187565b73ffffffffffffffffffffffffffffffffffffffff1614610d55576040517f08c379a0000000000000000000000000000000000000000000000000000000008152600401610d4c90613810565b60405180910390fd5b600a600082815260200190815260200160002060010160009054906101000a900460ff1615610db9576040517f08c379a0000000000000000000000000000000000000000000000000000000008152600401610db09061387c565b60405180910390fd5b6001600a600083815260200190815260200160002060010160006101000a81548160ff021916908315150217905550807f07c2221c844690cb15e32907258d38446cd4a17bc9b84e2069cd955615d547fd33604051610e189190612ee9565b60405180910390a250565b6000610e2d6120d4565b6000865111610e71576040517f08c379a0000000000000000000000000000000000000000000000000000000008152600401610e68906138e8565b60405180910390fd5b60008211610eb4576040517f08c379a0000000000000000000000000000000000000000000000000000000008152600401610eab90613954565b60405180910390fd5b428411610ef6576040517f08c379a0000000000000000000000000000000000000000000000000000000008152600401610eed906139c0565b60405180910390fd5b6000600854905060086000815480929190610f1090613a0f565b91905055506040518060e001604052808881526020018781526020018681526020018581526020018481526020016000815260200160011515815250600960008381526020019081526020016000206000820151816000019081610f749190613c03565b506020820151816001019081610f8a9190613c03565b5060408201518160020155606082015181600301556080820151816004015560a0820151816005015560c08201518160060160006101000a81548160ff021916908315150217905550905050807f42e6867e52299b45991308391cccb9ee79466d194059ff10fc15c2d88f0ea06188868660405161100a93929190613cd5565b60405180910390a28091505095945050505050565b6110276120d4565b60004790506000811161106f576040517f08c379a000000000000000000000000000000000000000000000000000000000815260040161106690613d5f565b60405180910390fd5b611077611884565b73ffffffffffffffffffffffffffffffffffffffff166108fc829081150290604051600060405180830381858888f193505050501580156110bc573d6000803e3d6000fd5b507feaff4b37086828766ad3268786972c0cd24259d4c87a80f9d3963a3c3d999b0d6110e6611884565b826040516110f5929190613d7f565b60405180910390a150565b61111b83838360405180602001604052806000815250611990565b505050565b600a6020528060005260406000206000915090508060000154908060010160009054906101000a900460ff16908060020154908060030160009054906101000a900473ffffffffffffffffffffffffffffffffffffffff16905084565b6000600854905090565b60008061119383612152565b9050600073ffffffffffffffffffffffffffffffffffffffff168173ffffffffffffffffffffffffffffffffffffffff1603611204576040517f08c379a00000000000000000000000000000000000000000000000000000000081526004016111fb90613df4565b60405180910390fd5b80915050919050565b6000806009600084815260200190815260200160002090508060060160009054906101000a900460ff16611276576040517f08c379a000000000000000000000000000000000000000000000000000000000815260040161126d90613e60565b60405180910390fd5b80600401548160050154106112c0576040517f08c379a00000000000000000000000000000000000000000000000000000000081526004016112b790613ecc565b60405180910390fd5b8060030154341015611307576040517f08c379a00000000000000000000000000000000000000000000000000000000081526004016112fe90613f38565b60405180910390fd5b4281600201541161134d576040517f08c379a000000000000000000000000000000000000000000000000000000000815260040161134490613fa4565b60405180910390fd5b600060075490506007600081548092919061136790613a0f565b9190505550611376338261218f565b60405180608001604052808581526020016000151581526020014281526020013373ffffffffffffffffffffffffffffffffffffffff16815250600a60008381526020019081526020016000206000820151816000015560208201518160010160006101000a81548160ff0219169083151502179055506040820151816002015560608201518160030160006101000a81548173ffffffffffffffffffffffffffffffffffffffff021916908373ffffffffffffffffffffffffffffffffffffffff160217905550905050600b60003373ffffffffffffffffffffffffffffffffffffffff1673ffffffffffffffffffffffffffffffffffffffff1681526020019081526020016000208190806001815401808255809150506001900390600052602060002001600090919091909150558160050160008154809291906114bc90613a0f565b91905055508160030154341115611524573373ffffffffffffffffffffffffffffffffffffffff166108fc8360030154346114f79190613fc4565b9081150290604051600060405180830381858888f19350505050158015611522573d6000803e3d6000fd5b505b3373ffffffffffffffffffffffffffffffffffffffff1684827f085ec0eff4bf526b0dd054adffcd8bd8da42126a1133ce302042973f32029fb060405160405180910390a48092505050919050565b61157b612ae2565b600960008381526020019081526020016000206040518060e00160405290816000820180546115a9906135dd565b80601f01602080910402602001604051908101604052809291908181526020018280546115d5906135dd565b80156116225780601f106115f757610100808354040283529160200191611622565b820191906000526020600020905b81548152906001019060200180831161160557829003601f168201915b5050505050815260200160018201805461163b906135dd565b80601f0160208091040260200160405190810160405280929190818152602001828054611667906135dd565b80156116b45780601f10611689576101008083540402835291602001916116b4565b820191906000526020600020905b81548152906001019060200180831161169757829003601f168201915b50505050508152602001600282015481526020016003820154815260200160048201548152602001600582015481526020016006820160009054906101000a900460ff1615151515815250509050919050565b60008073ffffffffffffffffffffffffffffffffffffffff168273ffffffffffffffffffffffffffffffffffffffff1603611777576040517f08c379a000000000000000000000000000000000000000000000000000000000815260040161176e9061406a565b60405180910390fd5b600360008373ffffffffffffffffffffffffffffffffffffffff1673ffffffffffffffffffffffffffffffffffffffff168152602001908152602001600020549050919050565b6117c66120d4565b6117d060006121ad565b565b6117da612b21565b600a6000838152602001908152602001600020604051806080016040529081600082015481526020016001820160009054906101000a900460ff16151515158152602001600282015481526020016003820160009054906101000a900473ffffffffffffffffffffffffffffffffffffffff1673ffffffffffffffffffffffffffffffffffffffff1673ffffffffffffffffffffffffffffffffffffffff16815250509050919050565b6000600660009054906101000a900473ffffffffffffffffffffffffffffffffffffffff16905090565b6118b66120d4565b60006009600083815260200190815260200160002060060160006101000a81548160ff02191690831515021790555050565b6060600180546118f7906135dd565b80601f0160208091040260200160405190810160405280929190818152602001828054611923906135dd565b80156119705780601f1061194557610100808354040283529160200191611970565b820191906000526020600020905b81548152906001019060200180831161195357829003601f168201915b5050505050905090565b61198c611985611c85565b8383612273565b5050565b6119a161199b611c85565b83611d46565b6119e0576040517f08c379a00000000000000000000000000000000000000000000000000000000081526004016119d7906137a4565b60405180910390fd5b6119ec848484846123df565b50505050565b60606119fd82611c3a565b6000611a0761243b565b90506000815111611a275760405180602001604052806000815250611a52565b80611a3184612452565b604051602001611a429291906140c6565b6040516020818303038152906040525b915050919050565b600b6020528160005260406000208181548110611a7657600080fd5b90600052602060002001600091509150505481565b6000600560008473ffffffffffffffffffffffffffffffffffffffff1673ffffffffffffffffffffffffffffffffffffffff16815260200190815260200160002060008373ffffffffffffffffffffffffffffffffffffffff1673ffffffffffffffffffffffffffffffffffffffff16815260200190815260200160002060009054906101000a900460ff16905092915050565b611b276120d4565b600073ffffffffffffffffffffffffffffffffffffffff168173ffffffffffffffffffffffffffffffffffffffff1603611b96576040517f08c379a0000000000000000000000000000000000000000000000000000000008152600401611b8d9061415c565b60405180910390fd5b611b9f816121ad565b50565b6000600a600083815260200190815260200160002060010160009054906101000a900460ff16159050919050565b60007f01ffc9a7000000000000000000000000000000000000000000000000000000007bffffffffffffffffffffffffffffffffffffffffffffffffffffffff1916827bffffffffffffffffffffffffffffffffffffffffffffffffffffffff1916149050919050565b611c4381612520565b611c82576040517f08c379a0000000000000000000000000000000000000000000000000000000008152600401611c7990613df4565b60405180910390fd5b50565b600033905090565b816004600083815260200190815260200160002060006101000a81548173ffffffffffffffffffffffffffffffffffffffff021916908373ffffffffffffffffffffffffffffffffffffffff160217905550808273ffffffffffffffffffffffffffffffffffffffff16611d0083611187565b73ffffffffffffffffffffffffffffffffffffffff167f8c5be1e5ebec7d5bd14f71427d1e84f3dd0314c0f7b2291e5b200ac8c7c3b92560405160405180910390a45050565b600080611d5283611187565b90508073ffffffffffffffffffffffffffffffffffffffff168473ffffffffffffffffffffffffffffffffffffffff161480611d945750611d938185611a8b565b5b80611dd257508373ffffffffffffffffffffffffffffffffffffffff16611dba846109c3565b73ffffffffffffffffffffffffffffffffffffffff16145b91505092915050565b8273ffffffffffffffffffffffffffffffffffffffff16611dfb82611187565b73ffffffffffffffffffffffffffffffffffffffff1614611e51576040517f08c379a0000000000000000000000000000000000000000000000000000000008152600401611e48906141ee565b60405180910390fd5b600073ffffffffffffffffffffffffffffffffffffffff168273ffffffffffffffffffffffffffffffffffffffff1603611ec0576040517f08c379a0000000000000000000000000000000000000000000000000000000008152600401611eb790614280565b60405180910390fd5b611ecd8383836001612561565b8273ffffffffffffffffffffffffffffffffffffffff16611eed82611187565b73ffffffffffffffffffffffffffffffffffffffff1614611f43576040517f08c379a0000000000000000000000000000000000000000000000000000000008152600401611f3a906141ee565b60405180910390fd5b6004600082815260200190815260200160002060006101000a81549073ffffffffffffffffffffffffffffffffffffffff02191690556001600360008573ffffffffffffffffffffffffffffffffffffffff1673ffffffffffffffffffffffffffffffffffffffff168152602001908152602001600020600082825403925050819055506001600360008473ffffffffffffffffffffffffffffffffffffffff1673ffffffffffffffffffffffffffffffffffffffff16815260200190815260200160002060008282540192505081905550816002600083815260200190815260200160002060006101000a81548173ffffffffffffffffffffffffffffffffffffffff021916908373ffffffffffffffffffffffffffffffffffffffff160217905550808273ffffffffffffffffffffffffffffffffffffffff168473ffffffffffffffffffffffffffffffffffffffff167fddf252ad1be2c89b69c2b068fc378daa952ba7f163c4a11628f55a4df523b3ef60405160405180910390a46120cf8383836001612567565b505050565b6120dc611c85565b73ffffffffffffffffffffffffffffffffffffffff166120fa611884565b73ffffffffffffffffffffffffffffffffffffffff1614612150576040517f08c379a0000000000000000000000000000000000000000000000000000000008152600401612147906142ec565b60405180910390fd5b565b60006002600083815260200190815260200160002060009054906101000a900473ffffffffffffffffffffffffffffffffffffffff169050919050565b6121a982826040518060200160405280600081525061256d565b5050565b6000600660009054906101000a900473ffffffffffffffffffffffffffffffffffffffff16905081600660006101000a81548173ffffffffffffffffffffffffffffffffffffffff021916908373ffffffffffffffffffffffffffffffffffffffff1602179055508173ffffffffffffffffffffffffffffffffffffffff168173ffffffffffffffffffffffffffffffffffffffff167f8be0079c531659141344cd1fd0a4f28419497f9722a3daafe3b4186f6b6457e060405160405180910390a35050565b8173ffffffffffffffffffffffffffffffffffffffff168373ffffffffffffffffffffffffffffffffffffffff16036122e1576040517f08c379a00000000000000000000000000000000000000000000000000000000081526004016122d890614358565b60405180910390fd5b80600560008573ffffffffffffffffffffffffffffffffffffffff1673ffffffffffffffffffffffffffffffffffffffff16815260200190815260200160002060008473ffffffffffffffffffffffffffffffffffffffff1673ffffffffffffffffffffffffffffffffffffffff16815260200190815260200160002060006101000a81548160ff0219169083151502179055508173ffffffffffffffffffffffffffffffffffffffff168373ffffffffffffffffffffffffffffffffffffffff167f17307eab39ab6107e8899845ad3d59bd9653f200f220920489ca2b5937696c31836040516123d29190612c15565b60405180910390a3505050565b6123ea848484611ddb565b6123f6848484846125c8565b612435576040517f08c379a000000000000000000000000000000000000000000000000000000000815260040161242c906143ea565b60405180910390fd5b50505050565b606060405180602001604052806000815250905090565b6060600060016124618461274f565b01905060008167ffffffffffffffff8111156124805761247f61301e565b5b6040519080825280601f01601f1916602001820160405280156124b25781602001600182028036833780820191505090505b509050600082602001820190505b600115612515578080600190039150507f3031323334353637383961626364656600000000000000000000000000000000600a86061a8153600a85816125095761250861440a565b5b049450600085036124c0575b819350505050919050565b60008073ffffffffffffffffffffffffffffffffffffffff1661254283612152565b73ffffffffffffffffffffffffffffffffffffffff1614159050919050565b50505050565b50505050565b61257783836128a2565b61258460008484846125c8565b6125c3576040517f08c379a00000000000000000000000000000000000000000000000000000000081526004016125ba906143ea565b60405180910390fd5b505050565b60006125e98473ffffffffffffffffffffffffffffffffffffffff16612abf565b15612742578373ffffffffffffffffffffffffffffffffffffffff1663150b7a02612612611c85565b8786866040518563ffffffff1660e01b8152600401612634949392919061448e565b6020604051808303816000875af192505050801561267057506040513d601f19601f8201168201806040525081019061266d91906144ef565b60015b6126f2573d80600081146126a0576040519150601f19603f3d011682016040523d82523d6000602084013e6126a5565b606091505b5060008151036126ea576040517f08c379a00000000000000000000000000000000000000000000000000000000081526004016126e1906143ea565b60405180910390fd5b805181602001fd5b63150b7a0260e01b7bffffffffffffffffffffffffffffffffffffffffffffffffffffffff1916817bffffffffffffffffffffffffffffffffffffffffffffffffffffffff191614915050612747565b600190505b949350505050565b600080600090507a184f03e93ff9f4daa797ed6e38ed64bf6a1f01000000000000000083106127ad577a184f03e93ff9f4daa797ed6e38ed64bf6a1f01000000000000000083816127a3576127a261440a565b5b0492506040810190505b6d04ee2d6d415b85acef810000000083106127ea576d04ee2d6d415b85acef810000000083816127e0576127df61440a565b5b0492506020810190505b662386f26fc10000831061281957662386f26fc10000838161280f5761280e61440a565b5b0492506010810190505b6305f5e1008310612842576305f5e10083816128385761283761440a565b5b0492506008810190505b612710831061286757612710838161285d5761285c61440a565b5b0492506004810190505b6064831061288a57606483816128805761287f61440a565b5b0492506002810190505b600a8310612899576001810190505b80915050919050565b600073ffffffffffffffffffffffffffffffffffffffff168273ffffffffffffffffffffffffffffffffffffffff1603612911576040517f08c379a000000000000000000000000000000000000000000000000000000000815260040161290890614568565b60405180910390fd5b61291a81612520565b1561295a576040517f08c379a0000000000000000000000000000000000000000000000000000000008152600401612951906145d4565b60405180910390fd5b612968600083836001612561565b61297181612520565b156129b1576040517f08c379a00000000000000000000000000000000000000000000000000000000081526004016129a8906145d4565b60405180910390fd5b6001600360008473ffffffffffffffffffffffffffffffffffffffff1673ffffffffffffffffffffffffffffffffffffffff16815260200190815260200160002060008282540192505081905550816002600083815260200190815260200160002060006101000a81548173ffffffffffffffffffffffffffffffffffffffff021916908373ffffffffffffffffffffffffffffffffffffffff160217905550808273ffffffffffffffffffffffffffffffffffffffff16600073ffffffffffffffffffffffffffffffffffffffff167fddf252ad1be2c89b69c2b068fc378daa952ba7f163c4a11628f55a4df523b3ef60405160405180910390a4612abb600083836001612567565b5050565b6000808273ffffffffffffffffffffffffffffffffffffffff163b119050919050565b6040518060e001604052806060815260200160608152602001600081526020016000815260200160008152602001600081526020016000151581525090565b60405180608001604052806000815260200160001515815260200160008152602001600073ffffffffffffffffffffffffffffffffffffffff1681525090565b6000604051905090565b600080fd5b600080fd5b60007fffffffff0000000000000000000000000000000000000000000000000000000082169050919050565b612baa81612b75565b8114612bb557600080fd5b50565b600081359050612bc781612ba1565b92915050565b600060208284031215612be357612be2612b6b565b5b6000612bf184828501612bb8565b91505092915050565b60008115159050919050565b612c0f81612bfa565b82525050565b6000602082019050612c2a6000830184612c06565b92915050565b600073ffffffffffffffffffffffffffffffffffffffff82169050919050565b6000612c5b82612c30565b9050919050565b612c6b81612c50565b8114612c7657600080fd5b50565b600081359050612c8881612c62565b92915050565b600060208284031215612ca457612ca3612b6b565b5b6000612cb284828501612c79565b91505092915050565b600081519050919050565b600082825260208201905092915050565b6000819050602082019050919050565b6000819050919050565b612cfa81612ce7565b82525050565b6000612d0c8383612cf1565b60208301905092915050565b6000602082019050919050565b6000612d3082612cbb565b612d3a8185612cc6565b9350612d4583612cd7565b8060005b83811015612d76578151612d5d8882612d00565b9750612d6883612d18565b925050600181019050612d49565b5085935050505092915050565b60006020820190508181036000830152612d9d8184612d25565b905092915050565b612dae81612ce7565b82525050565b6000602082019050612dc96000830184612da5565b92915050565b600081519050919050565b600082825260208201905092915050565b60005b83811015612e09578082015181840152602081019050612dee565b60008484015250505050565b6000601f19601f8301169050919050565b6000612e3182612dcf565b612e3b8185612dda565b9350612e4b818560208601612deb565b612e5481612e15565b840191505092915050565b60006020820190508181036000830152612e798184612e26565b905092915050565b612e8a81612ce7565b8114612e9557600080fd5b50565b600081359050612ea781612e81565b92915050565b600060208284031215612ec357612ec2612b6b565b5b6000612ed184828501612e98565b91505092915050565b612ee381612c50565b82525050565b6000602082019050612efe6000830184612eda565b92915050565b60008060408385031215612f1b57612f1a612b6b565b5b6000612f2985828601612c79565b9250506020612f3a85828601612e98565b9150509250929050565b600060e0820190508181036000830152612f5e818a612e26565b90508181036020830152612f728189612e26565b9050612f816040830188612da5565b612f8e6060830187612da5565b612f9b6080830186612da5565b612fa860a0830185612da5565b612fb560c0830184612c06565b98975050505050505050565b600080600060608486031215612fda57612fd9612b6b565b5b6000612fe886828701612c79565b9350506020612ff986828701612c79565b925050604061300a86828701612e98565b9150509250925092565b600080fd5b600080fd5b7f4e487b7100000000000000000000000000000000000000000000000000000000600052604160045260246000fd5b61305682612e15565b810181811067ffffffffffffffff821117156130755761307461301e565b5b80604052505050565b6000613088612b61565b9050613094828261304d565b919050565b600067ffffffffffffffff8211156130b4576130b361301e565b5b6130bd82612e15565b9050602081019050919050565b82818337600083830152505050565b60006130ec6130e784613099565b61307e565b90508281526020810184848401111561310857613107613019565b5b6131138482856130ca565b509392505050565b600082601f8301126131305761312f613014565b5b81356131408482602086016130d9565b91505092915050565b600080600080600060a0868803121561316557613164612b6b565b5b600086013567ffffffffffffffff81111561318357613182612b70565b5b61318f8882890161311b565b955050602086013567ffffffffffffffff8111156131b0576131af612b70565b5b6131bc8882890161311b565b94505060406131cd88828901612e98565b93505060606131de88828901612e98565b92505060806131ef88828901612e98565b9150509295509295909350565b60006080820190506132116000830187612da5565b61321e6020830186612c06565b61322b6040830185612da5565b6132386060830184612eda565b95945050505050565b600082825260208201905092915050565b600061325d82612dcf565b6132678185613241565b9350613277818560208601612deb565b61328081612e15565b840191505092915050565b61329481612bfa565b82525050565b600060e08301600083015184820360008601526132b78282613252565b915050602083015184820360208601526132d18282613252565b91505060408301516132e66040860182612cf1565b5060608301516132f96060860182612cf1565b50608083015161330c6080860182612cf1565b5060a083015161331f60a0860182612cf1565b5060c083015161333260c086018261328b565b508091505092915050565b60006020820190508181036000830152613357818461329a565b905092915050565b61336881612c50565b82525050565b6080820160008201516133846000850182612cf1565b506020820151613397602085018261328b565b5060408201516133aa6040850182612cf1565b5060608201516133bd606085018261335f565b50505050565b60006080820190506133d8600083018461336e565b92915050565b6133e781612bfa565b81146133f257600080fd5b50565b600081359050613404816133de565b92915050565b6000806040838503121561342157613420612b6b565b5b600061342f85828601612c79565b9250506020613440858286016133f5565b9150509250929050565b600067ffffffffffffffff8211156134655761346461301e565b5b61346e82612e15565b9050602081019050919050565b600061348e6134898461344a565b61307e565b9050828152602081018484840111156134aa576134a9613019565b5b6134b58482856130ca565b509392505050565b600082601f8301126134d2576134d1613014565b5b81356134e284826020860161347b565b91505092915050565b6000806000806080858703121561350557613504612b6b565b5b600061351387828801612c79565b945050602061352487828801612c79565b935050604061353587828801612e98565b925050606085013567ffffffffffffffff81111561355657613555612b70565b5b613562878288016134bd565b91505092959194509250565b6000806040838503121561358557613584612b6b565b5b600061359385828601612c79565b92505060206135a485828601612c79565b9150509250929050565b7f4e487b7100000000000000000000000000000000000000000000000000000000600052602260045260246000fd5b600060028204905060018216806135f557607f821691505b602082108103613608576136076135ae565b5b50919050565b7f4552433732313a20617070726f76616c20746f2063757272656e74206f776e6560008201527f7200000000000000000000000000000000000000000000000000000000000000602082015250565b600061366a602183612dda565b91506136758261360e565b604082019050919050565b600060208201905081810360008301526136998161365d565b9050919050565b7f4552433732313a20617070726f76652063616c6c6572206973206e6f7420746f60008201527f6b656e206f776e6572206f7220617070726f76656420666f7220616c6c000000602082015250565b60006136fc603d83612dda565b9150613707826136a0565b604082019050919050565b6000602082019050818103600083015261372b816136ef565b9050919050565b7f4552433732313a2063616c6c6572206973206e6f7420746f6b656e206f776e6560008201527f72206f7220617070726f76656400000000000000000000000000000000000000602082015250565b600061378e602d83612dda565b915061379982613732565b604082019050919050565b600060208201905081810360008301526137bd81613781565b9050919050565b7f596f7520646f6e2774206f776e2074686973207469636b657400000000000000600082015250565b60006137fa601983612dda565b9150613805826137c4565b602082019050919050565b60006020820190508181036000830152613829816137ed565b9050919050565b7f5469636b657420616c7265616479207573656400000000000000000000000000600082015250565b6000613866601383612dda565b915061387182613830565b602082019050919050565b6000602082019050818103600083015261389581613859565b9050919050565b7f4576656e74206e616d652063616e6e6f7420626520656d707479000000000000600082015250565b60006138d2601a83612dda565b91506138dd8261389c565b602082019050919050565b60006020820190508181036000830152613901816138c5565b9050919050565b7f4d7573742068617665206174206c656173742031207469636b65740000000000600082015250565b600061393e601b83612dda565b915061394982613908565b602082019050919050565b6000602082019050818103600083015261396d81613931565b9050919050565b7f4576656e742064617465206d75737420626520696e2066757475726500000000600082015250565b60006139aa601c83612dda565b91506139b582613974565b602082019050919050565b600060208201905081810360008301526139d98161399d565b9050919050565b7f4e487b7100000000000000000000000000000000000000000000000000000000600052601160045260246000fd5b6000613a1a82612ce7565b91507fffffffffffffffffffffffffffffffffffffffffffffffffffffffffffffffff8203613a4c57613a4b6139e0565b5b600182019050919050565b60008190508160005260206000209050919050565b60006020601f8301049050919050565b600082821b905092915050565b600060088302613ab97fffffffffffffffffffffffffffffffffffffffffffffffffffffffffffffffff82613a7c565b613ac38683613a7c565b95508019841693508086168417925050509392505050565b6000819050919050565b6000613b00613afb613af684612ce7565b613adb565b612ce7565b9050919050565b6000819050919050565b613b1a83613ae5565b613b2e613b2682613b07565b848454613a89565b825550505050565b600090565b613b43613b36565b613b4e818484613b11565b505050565b5b81811015613b7257613b67600082613b3b565b600181019050613b54565b5050565b601f821115613bb757613b8881613a57565b613b9184613a6c565b81016020851015613ba0578190505b613bb4613bac85613a6c565b830182613b53565b50505b505050565b600082821c905092915050565b6000613bda60001984600802613bbc565b1980831691505092915050565b6000613bf38383613bc9565b9150826002028217905092915050565b613c0c82612dcf565b67ffffffffffffffff811115613c2557613c2461301e565b5b613c2f82546135dd565b613c3a828285613b76565b600060209050601f831160018114613c6d5760008415613c5b578287015190505b613c658582613be7565b865550613ccd565b601f198416613c7b86613a57565b60005b82811015613ca357848901518255600182019150602085019450602081019050613c7e565b86831015613cc05784890151613cbc601f891682613bc9565b8355505b6001600288020188555050505b505050505050565b60006060820190508181036000830152613cef8186612e26565b9050613cfe6020830185612da5565b613d0b6040830184612da5565b949350505050565b7f4e6f2066756e647320746f207769746864726177000000000000000000000000600082015250565b6000613d49601483612dda565b9150613d5482613d13565b602082019050919050565b60006020820190508181036000830152613d7881613d3c565b9050919050565b6000604082019050613d946000830185612eda565b613da16020830184612da5565b9392505050565b7f4552433732313a20696e76616c696420746f6b656e2049440000000000000000600082015250565b6000613dde601883612dda565b9150613de982613da8565b602082019050919050565b60006020820190508181036000830152613e0d81613dd1565b9050919050565b7f4576656e74206973206e6f742061637469766500000000000000000000000000600082015250565b6000613e4a601383612dda565b9150613e5582613e14565b602082019050919050565b60006020820190508181036000830152613e7981613e3d565b9050919050565b7f4576656e7420697320736f6c64206f7574000000000000000000000000000000600082015250565b6000613eb6601183612dda565b9150613ec182613e80565b602082019050919050565b60006020820190508181036000830152613ee581613ea9565b9050919050565b7f496e73756666696369656e74204554482073656e740000000000000000000000600082015250565b6000613f22601583612dda565b9150613f2d82613eec565b602082019050919050565b60006020820190508181036000830152613f5181613f15565b9050919050565b7f4576656e742068617320616c7265616479207061737365640000000000000000600082015250565b6000613f8e601883612dda565b9150613f9982613f58565b602082019050919050565b60006020820190508181036000830152613fbd81613f81565b9050919050565b6000613fcf82612ce7565b9150613fda83612ce7565b9250828203905081811115613ff257613ff16139e0565b5b92915050565b7f4552433732313a2061646472657373207a65726f206973206e6f74206120766160008201527f6c6964206f776e65720000000000000000000000000000000000000000000000602082015250565b6000614054602983612dda565b915061405f82613ff8565b604082019050919050565b6000602082019050818103600083015261408381614047565b9050919050565b600081905092915050565b60006140a082612dcf565b6140aa818561408a565b93506140ba818560208601612deb565b80840191505092915050565b60006140d28285614095565b91506140de8284614095565b91508190509392505050565b7f4f776e61626c653a206e6577206f776e657220697320746865207a65726f206160008201527f6464726573730000000000000000000000000000000000000000000000000000602082015250565b6000614146602683612dda565b9150614151826140ea565b604082019050919050565b6000602082019050818103600083015261417581614139565b9050919050565b7f4552433732313a207472616e736665722066726f6d20696e636f72726563742060008201527f6f776e6572000000000000000000000000000000000000000000000000000000602082015250565b60006141d8602583612dda565b91506141e38261417c565b604082019050919050565b60006020820190508181036000830152614207816141cb565b9050919050565b7f4552433732313a207472616e7366657220746f20746865207a65726f2061646460008201527f7265737300000000000000000000000000000000000000000000000000000000602082015250565b600061426a602483612dda565b91506142758261420e565b604082019050919050565b600060208201905081810360008301526142998161425d565b9050919050565b7f4f776e61626c653a2063616c6c6572206973206e6f7420746865206f776e6572600082015250565b60006142d6602083612dda565b91506142e1826142a0565b602082019050919050565b60006020820190508181036000830152614305816142c9565b9050919050565b7f4552433732313a20617070726f766520746f2063616c6c657200000000000000600082015250565b6000614342601983612dda565b915061434d8261430c565b602082019050919050565b6000602082019050818103600083015261437181614335565b9050919050565b7f4552433732313a207472616e7366657220746f206e6f6e20455243373231526560008201527f63656976657220696d706c656d656e7465720000000000000000000000000000602082015250565b60006143d4603283612dda565b91506143df82614378565b604082019050919050565b60006020820190508181036000830152614403816143c7565b9050919050565b7f4e487b7100000000000000000000000000000000000000000000000000000000600052601260045260246000fd5b600081519050919050565b600082825260208201905092915050565b600061446082614439565b61446a8185614444565b935061447a818560208601612deb565b61448381612e15565b840191505092915050565b60006080820190506144a36000830187612eda565b6144b06020830186612eda565b6144bd6040830185612da5565b81810360608301526144cf8184614455565b905095945050505050565b6000815190506144e981612ba1565b92915050565b60006020828403121561450557614504612b6b565b5b6000614513848285016144da565b91505092915050565b7f4552433732313a206d696e7420746f20746865207a65726f2061646472657373600082015250565b6000614552602083612dda565b915061455d8261451c565b602082019050919050565b6000602082019050818103600083015261458181614545565b9050919050565b7f4552433732313a20746f6b656e20616c7265616479206d696e74656400000000600082015250565b60006145be601c83612dda565b91506145c982614588565b602082019050919050565b600060208201905081810360008301526145ed816145b1565b905091905056fea264697066735822122005d30b15584f7b34707c5ce54d34a512055d1f7349ae0ea8a9f0b06d2105c7db64736f6c63430008140033",
  "linkReferences": {},
  "deployedLinkReferences": {}
}